:100000000C94E9050C94401E0C946D1E0C94110682
:100010000C9411060C9411060C9411060C94110604
:100020000C9411060C9411060C9411060C940012F9
:100030000C9411060C9411060C9411060C941106E4
:100040000C949A1E0C9411060C94E9210C941B221A
:100050000C9411060C9411060C9411060C941106C4
:100060000C94D3100C941106084AD73B3BCE016E7A
:1000700084BCBFFDC12F3D6C74319ABD56833DDAFF
:100080003D00C77F11BED9E4BB4C3E916BAAAABE0E
:10009000000000803F004649464F206F766572663B
:1000A0006C6F7721002900444D5020496E697469B6
:1000B000616C697A6174696F6E206661696C6564F0
:1000C0002028636F64652000444D50207265616490
:1000D00079212057616974696E6720666F722066A6
:1000E0006972737420696E746572727570742E2EE5
:1000F0002E00456E61626C696E6720696E74657270
:100100007275707420646574656374696F6E2028FD
:1001100041726475696E6F2065787465726E616C8A
:1001200020696E746572727570742030292E2E2EBF
:1001300000456E61626C696E6720444D502E2E2E14
:1001400000496E697469616C697A696E6720444D13
:10015000502E2E2E004D50553630353020636F6EA8
:100160006E656374696F6E206661696C6564004DCD
:1001700050553630353020636F6E6E656374696F2D
:100180006E207375636365737366756C0054657375
:1001900074696E672064657669636520636F6E6E4F
:1001A000656374696F6E732E2E2E00496E697469D3
:1001B000616C697A696E67204D5055202E2E2E0095
:1001C00001B202FFFF0190040923A135016A020672
:1001D0000001600800000000000000000060044012
:1001E0000000000162020000006004004000000303
:1001F0007B034CCD6C03AB0336567600680402CB10
:1002000047A202180400058BC1010C040000000085
:10021000037F060CC92C979797038903264666002F
:100220006C022000024004000000000244040000B0
:10023000000002480400000000024C04000000001E
:1002400002500400000000025404000000000258A4
:100250000400000000025C040000000002BC040076
:1002600000000001EC0400004000037F060CC92CD4
:100270009797970402030D355D040904872D353DDA
:1002800000A3010000000001078601FE074105F1FF
:1002900020283038077E01300746019A074704F1CD
:1002A000283038076C04F12830380216020001FBB0
:1002B00000003E000B0036000100020003000000B9
:1002C000650054FFEF0000FA80000B12820001006D
:1002D000020000000000000000000000000000001C
:1002E000280000FFFF4581FFFFFA720000000000B8
:1002F0000003E80000000100017FFFFFFE80010015
:100300001B000000000000000000000000000000D2
:100310003E03304000000002CAE3093E8000002096
:1003200000000000000000400000006000000041EC
:10033000FF000000000B2A0000165500002182FD7E
:10034000872650FD800000001F000000058000008F
:100350000000000001000000020000000300004057
:100360000000000000046F0002653200005EC04023
:10037000000000000000000000000000000000FB82
:100380008C6F5DFD5D08D9007C733B006C12CC3234
:1003900000139D3200D0D632000800400001F4FF67
:1003A000E68079020000000000D0D600002710FB94
:1003B00000000040000000000000000000000000FD
:1003C000000001000000000000010001000000002A
:1003D00000FA36FFBC308E0005FBF0FFD95BC8FF8A
:1003E000D09ABE000010A9FFF41EB200CEBBF700E9
:1003F00000000100000004000200020200000CFFE7
:10040000C280000001800000CF800040000000009A
:1004100000000100000000000006000000001400C1
:1004200000000000000000000000000000000000CC
:1004300000000000000000000000000000000000BC
:1004400000000000000000000000000000000000AC
:10045000000000033F68B6793528BCC67ED16C80A9
:10046000000000400000000000B26A000000000030
:100470000000000000000000003FF000000030001D
:10048000000000000000000000000000000000006C
:10049000000000000000000000000000000000005C
:1004A00000254D002F706D000005AE000C02D0003D
:1004B00000000000650054FFEF0000000000000095
:1004C0000001000044000000000C000000010000DA
:1004D0000000000065000000540000FFEF00000075
:1004E00000000000000000000000000000000040CC
:1004F00000000000000000000000000000000040BC
:1005000000000000000000000000000000000000EB
:1005100000000100000002000000000000000000D8
:1005200000000000000000000000000000000000CB
:1005300000000000000000000000000000000000BB
:100540001B00000000000000000000000000000090
:10055000000000000000000000000000000000009B
:10056000000000000000000000000040000000004B
:100570001B00000000000000000000000000000060
:10058000000000000000000000000000000000006B
:10059000000000000000000000000000000000005B
:1005A000000000000000000000000000000000D873
:1005B000DCBAA2F1DEB2B8B4A88191F74A907F917B
:1005C0006AF3F9DBA8F9B0BAA080F2CE81F3C2F1E8
:1005D000C1F2C3F3CCA2B280F1C6D880BAA7DFDFE4
:1005E000DFF2A7C3CBC5B6F087A2942448703C9530
:1005F000406834589B78A2F183922D557DD8B1B4D0
:10060000B8A1D09180F270F370F27C80A8F101B0B3
:100610009887D943D886C988BAA1F20EB89780F1D5
:10062000A9DFDFDFAADFDFDFF2AAC5CDC7A90CC9CA
:100630002C97979797F1A989264666B0B4BA80ACF3
:10064000DEF2CAF1B28C02A9B69800890E161EB865
:10065000A9B4992C547CB08AA896365676F1B9AFD5
:10066000B4B083C0B8A89711B18F98B9AFF024087F
:1006700044106418F1A329557DAF83B593AFF00002
:100680002850F1A3869F61A6DADEDFD9FAA3869609
:10069000DB31A6D9F8DFBAA68FC2C5C7B28CC1B804
:1006A000A2DFDFDFA3DFDFDFD8D8F1B8A8B286B4DE
:1006B000980D355DB8AA98B0872D353DB2B6BAAF62
:1006C0008C96198F9FA70E161EB49AB8AA872C5421
:1006D0007CB9A3DEDFDFA3B180F2C4CDC9F1B8A934
:1006E000B499830D355D89B9A32D557DB593A30EBE
:1006F000161EA92C547CB8B4B0F19783A81184A518
:100700000998A383F0DA240844106418D8F1A529C5
:10071000557DA58595021A2E3A565A4048F9F3A3FD
:10072000D9F8F098832408441064189782A8F1112E
:10073000F098A2240844106418DAF3DED883A59454
:1007400001D9A302F1A2C3C5C7D8F18492A24DDAA0
:100750002AD84869D92AD86855DA32D85071D9329E
:10076000D8705DDA3AD85879D93AD87893A34DDA67
:100770002AD84869D92AD86855DA32D85071D9327E
:10078000D8705DDA3AD85879D93AD878A88A9AF0E8
:100790002850789EF38818F19F1D98A8D908D8C8CA
:1007A0009F129EF315A8DA1210D8F1AFC8978734BC
:1007B000B5B994A421F3D922D8F22DF3D92AD8F2CD
:1007C00035F3D932D881A4606061D961D86C686989
:1007D000D969D8747071D971D8B1A384193D5DA35A
:1007E000831A3E5E931030811011B8B0AF8F94F22F
:1007F000DA3ED8B49AA88729DAF8D8879A35DAF891
:10080000D8879A3DDAF8D8B1B9A49885022E56A5B2
:1008100081000C14A397B08AF12DD928D84DD9485E
:10082000D86DD968D8B1840DDA0ED8A32983DA2C13
:100830000ED8A3844983DA2C4C0ED8B8B0A88A9A73
:10084000F520AADADFD8A840AAD0DADED8A860AAB4
:10085000DAD0DFD8F19786A8319B069907AB9728A5
:10086000889BF00C201440B8B0B4A88C9CF00428ED
:1008700051791D301438B282ABD0982C5050787812
:100880009BF11AB0F08A9CA82951798B2951798A59
:100890002470598B2058718A4469388B3940688A92
:1008A0006448318B304960A588200971584468112B
:1008B0003964493019F1AC002C547CF08CA8042820
:1008C0005078F1889726A85998AC8C02264666F095
:1008D000899CA8295179247059446938644831A900
:1008E0008809205970AB11384069A8193148608CCB
:1008F000A83C415C207C00F187981986A86E767E22
:10090000A999882D557D9EB9A38A228A6E8A568A16
:100910005E9FB183062646660E2E4E6E9DB8AD00D4
:100920002C547CF2B18CB499B9A32D557D8191AC36
:1009300038AD3AB58391AC2DD928D84DD948D86D6A
:10094000D968D88C9DAE29D904AED851D904AED877
:1009500079D904D881F39DAD008DAE1981ADD9014F
:10096000D8F2AEDA26D88E912983A7D9ADADADAD38
:10097000F32AD8D8F1B0AC89913E5E76F3AC2E2E36
:10098000F1B18C5A9CAC2C2828289CAC3018A89823
:100990008128343C9724A728343C9C24F2B089ACAD
:1009A000912C4C6C8A9B2DD9D8D851D9D8D879D9CB
:1009B000D8D8F19E88A331DAD8D8912DD928D84D2E
:1009C000D948D86DD968D8B18393353D8025DAD818
:1009D000D88569DAD8D8B49381A328343CF3AB8B9B
:1009E000F8A391B609B4D9ABDEFAB0879CB9A3DD00
:1009F000F1A3A3A3A395F1A3A3A39DF1A3A3A3A3F1
:100A0000F2A3B49080F2A3A3A3A3A3A3A3A3A3A33D
:100A1000B2A3A3A3A3A3A3B087B599F1A3A3A3985B
:100A2000F1A3A3A3A397A3A3A3A3F39BA3A3DCB9BD
:100A3000A7F1262626D8D8FF0000000800020100F2
:100A40000003040700000000000000000102040889
:100A50001020408001020408102001020408102028
:100A60000404040404040404020202020202030354
:100A700003030303000000002300260029000000F8
:100A80000000250028002B000000000024002700A3
:100A90002A004E414E494E495459494E46CDCCCC80
:100AA0003D0AD7233C17B7D13877CC2B329595E642
:100AB000241FB14F0A000020410000C84200401C22
:100AC0004620BCBE4CCA1B0E5AAEC59D7400407A6F
:100AD00010F35A00A0724E18090010A5D4E80000C7
:100AE000E87648170000E40B54020000CA9A3B0065
:100AF0000000E1F505000080969800000040420FDC
:100B0000000000A08601000000102700000000E89F
:100B100003000000006400000000000A0000000064
:100B2000000100000000002C76D888DC674F082305
:100B3000DFC1DFAE59E1B1B796E5E3E453C63AE66B
:100B400051997696E8E6C28426EB898C9B62ED404B
:100B50007C6FFCEFBC9C9F40F2BAA56FA5F490059A
:100B60005A2AF75C936B6CF9676DC11BFCE0E40DCE
:100B700047FEF520E6B500D0ED902E0300943577C2
:100B8000050080841E080000204E0A000000C80CEA
:100B9000333333330F986E12831141EF8D21148953
:100BA0003BE65516CFFEE6DB18D1844B381BF77CAD
:100BB0001D901DA4BBE424203284725E228100C9F2
:100BC000F124ECA1E53D2700AC0EF10F28154B22D6
:100BD0001C0F11241FBECFEFD8E0DEBFCDBF11E048
:100BE000A0E0B1E0ECE2FFE502C005900D92A8366E
:100BF000B107D9F723E0A8E6B1E001C01D92AB3DF3
:100C0000B207E1F71BE0C0EDDBE004C02297FE0174
:100C10000E942729C83CD107C9F70E948F220C9453
:100C2000892F0C940000CF92DF92EF92FF920F93E6
:100C30001F93E82FF92F05C001501109210931092F
:100C400061F1908196239417B9F305C00150110901
:100C50002109310911F1908196239413F7CFC12C0A
:100C6000D12CE12CF12C0AC08FEFC81AD80AE80A5F
:100C7000F80A0C151D052E053F0579F080818623A5
:100C8000841791F36C2D7D2D8E2D9F2D1F910F912B
:100C9000FF90EF90DF90CF90089560E070E080E0EB
:100CA00090E01F910F91FF90EF90DF90CF9008950B
:100CB00081E080938E010895209176013091770133
:100CC000409178015091790160917E0170917F018E
:100CD00080918001909181010E94BF250E94F126A0
:100CE00085E193E00E94561460917A0170917B0136
:100CF00080917C0190917D010E94F12685E193E035
:100D00000C94801460910A0170910B0180910C0188
:100D100090910D010E94F62685E193E00E94371420
:100D200060910E0170910F0180911001909111015D
:100D30000E94F62685E193E00C9430148F929F92E6
:100D4000AF92BF92CF92EF920F931F93CF93DF9307
:100D5000CDB7DEB7C059D1090FB6F894DEBF0FBECC
:100D6000CDBF5C010E94C4176EE170E080E090E0AE
:100D70000E94131F60E0C5010E94CB1721E041E0F3
:100D800060E1C5010E94E71866E0C5010E94F21803
:100D900020E040E060E0C5010E94E718C5010E9424
:100DA0004C18182FC5010E947318882EC5010E9487
:100DB0009A18982E4FE760E0C5010E94841760E002
:100DC000C5010E94AF1748E660E0C5010E94841784
:100DD000C5010E94BD1764E170E080E090E00E94D0
:100DE000131FEE24E39400E020E049E857E06FEAA7
:100DF00072E0C5010E94461A882309F408C240EC3B
:100E000050E06FEE71E0C5010E94111B882309F4C8
:100E100000C263E0C5010E94D21762E1C5010E94D1
:100E2000901764E0C5010E943A1761E0C5010E9475
:100E3000401763E0C5010E944B1763E0C5010E94A3
:100E4000561763E0C5010E94141B60E0C5010E94B3
:100E50001A1B60E0C5010E944518612FC5010E9460
:100E60006818682DC5010E948F18692DC5010E9460
:100E7000B618812C912CF401E054FE4FE491A1E8C6
:100E8000B0E0AC0FBD1FA80DB11DEC9381E0880D43
:100E90009FEF891A990AE3E0E81568F7CD57DF4F0D
:100EA0004881C358D04050E09A012E5F3F4F90E0F8
:100EB0002817390704F7C12CEE24E394CE57DF4FEF
:100EC0000881C258D040CF57DF4F2881C158D04049
:100ED00061E870E06C0F7D1F6D5F7F4FC5010E9460
:100EE000621960E0F401E054FE4FE491A1E8B0E043
:100EF000AC0FBD1FA60FB11DEC936F5FFFEF8F1AF4
:100F00009F0A643078F3CD57DF4F4881C358D040F3
:100F100050E09A012E5F3F4F862F90E02817390747
:100F20000CF7C12CEE24E394CE57DF4F0881C25852
:100F3000D040CF57DF4F2881C158D04061E870E0E2
:100F40006C0F7D1F6D5F7F4FC5010E946219C50147
:100F50000E94B617C5010E94F117482FBE016F5FAE
:100F60007F4FC5010E940D1862E0C5010E946C17F9
:100F70006CE9C5010E94781760E5C5010E947217EF
:100F800060E0C5010E947E17C5010E94B61761E0AE
:100F9000C5010E94A81761E0C5010E94D918C501CA
:100FA0000E94E01860E0F401E054FE4FE491A1E8F3
:100FB000B0E0AC0FBD1FA60FB11DEC936F5F8FEFBC
:100FC000881A980A643078F3CD57DF4F4881C358A8
:100FD000D04050E09A012E5F3F4F862F90E02817B7
:100FE00039070CF7C12CEE24E394CE57DF4F08816C
:100FF000C258D040CF57DF4F2881C158D04061E858
:1010000070E06C0F7D1F6D5F7F4FC5010E946219FC
:1010100060E0F401E054FE4FE491A1E8B0E0AC0FD1
:10102000BD1FA60FB11DEC936F5F9FEF891A990A40
:10103000643078F3CD57DF4F4881C358D04050E03B
:101040009A012E5F3F4F862F90E0281739070CF743
:10105000C12CEE24E394CE57DF4F0881C258D04014
:10106000CF57DF4F2881C158D04061E870E06C0F46
:101070007D1F6D5F7F4FC5010E94621960E0F40122
:10108000E054FE4FE491A1E8B0E0AC0FBD1FA60F05
:10109000B11DEC936F5FEFEF8E1A9E0A643078F308
:1010A000CD57DF4F4881C358D04050E09A012E5FA2
:1010B0003F4F862F90E0281739070CF7C12CEE24FC
:1010C000E394CE57DF4F0881C258D040CF57DF4F4F
:1010D0002881C158D04061E870E06C0F7D1F6D5FC2
:1010E0007F4FC5010E946219C5010E94F11783302C
:1010F0009105D0F3482FBE016F5F7F4FC5010E945D
:101100000D1860E0F401E054FE4FE491A1E8B0E076
:10111000AC0FBD1FA60FB11DEC936F5FFFEF8F1AD1
:101120009F0A643078F3CD57DF4F4881C358D040D1
:1011300050E09A012E5F3F4F862F90E02817390725
:101140000CF7CE57DF4F0881C258D040CF57DF4F42
:101150002881C158D04061E870E06C0F7D1F6D5F41
:101160007F4FC5010E94F818C5010E94F117833016
:101170009105D0F3482FBE016F5F7F4FC5010E94DC
:101180000D18F401E054FE4F60E08491A1E8B0E056
:10119000AC0FBD1FA60FB11D8C936F5F643010F4B0
:1011A0003196F3CFCD57DF4F4881C358D04050E040
:1011B0009A012E5F3F4F862F90E02817390784F75A
:1011C00061E870E06C0F7D1F6D5F7F4FC12CEE24D6
:1011D000E394CE57DF4F0881C258D040CF57DF4F3E
:1011E0002881C158D040C5010E94621960E0C50144
:1011F0000E94D9188AE290E0F50193838283C501A9
:101200000E94B617C5010E94961780E003C081E0D6
:1012100001C082E0C057DF4F0FB6F894DEBF0FBEAB
:10122000CDBFDF91CF911F910F91EF90CF90BF90E5
:10123000AF909F908F900895CF93DF93DB01FA01D9
:10124000309719F4EC01E881F981808190E0982FC2
:1012500088272181822B11969C938E93848190E024
:10126000982F88272581822B13969C938E93129713
:10127000808590E0982F88272185822B15969C9356
:101280008E931497848590E0982F88272585822B4C
:1012900017969C938E93169780E0DF91CF910895D7
:1012A000FF920F931F93CF93DF93CDB7DEB72897AD
:1012B0000FB6F894DEBF0FBECDBF8B01BE016F5FCE
:1012C0007F4F0E941C09F82E81114CC069817A81E0
:1012D000882777FD8095982F0E94242720E030E012
:1012E00040E858E30E940028F801608371838283FC
:1012F00093836B817C81882777FD8095982F0E944E
:10130000242720E030E040E858E30E940028F8015C
:1013100064837583868397836D817E81882777FDBB
:101320008095982F0E94242720E030E040E858E381
:101330000E940028F80160877187828793876F81F8
:101340007885882777FD8095982F0E94242720E0B4
:1013500030E040E858E30E940028F8016487758770
:10136000868797878F2D28960FB6F894DEBF0FBE1D
:10137000CDBFDF91CF911F910F91FF9008954F92B4
:101380005F926F927F928F929F92AF92BF92CF9215
:10139000DF92EF92FF920F931F93CF93DF93CDB71E
:1013A000DEB728970FB6F894DEBF0FBECDBF8B0116
:1013B000DA011496CD90DD90ED90FC9017971C9675
:1013C0004D905D906D907C901F978D909D90AD900D
:1013D000BC90139718968D919D910D90BC91A02D66
:1013E00089839A83AB83BC83A3019201C701B601B1
:1013F0000E9400286D837E838F83988729813A819C
:101400004B815C81C501B4010E9400289B01AC01A5
:101410006D817E818F8198850E94BE259B01AC01E4
:101420000E94BF25F8016083718382839383A701A3
:101430009601C501B4010E9400286D837E838F83CD
:101440009887A301920169817A818B819C810E9496
:1014500000289B01AC016D817E818F8198850E945F
:10146000BF259B01AC010E94BF25D80114966D9346
:101470007D938D939C931797A5019401C501B401A9
:101480000E9400284B015C01A7019601C701B6012B
:101490000E9400289B01AC01C501B4010E94BE2539
:1014A0006B017C0129813A814B815C81CA01B901C0
:1014B0000E9400289B01AC01C701B6010E94BE2515
:1014C0006B017C01A3019201C301B2010E940028BB
:1014D0009B01AC01C701B6010E94BF25F8016087DE
:1014E00071878287938780E028960FB6F894DEBFD5
:1014F0000FBECDBFDF91CF911F910F91FF90EF9065
:10150000DF90CF90BF90AF909F908F907F906F9023
:101510005F904F9008952F923F924F925F926F92FB
:101520007F928F929F92AF92BF92CF92DF92EF9273
:10153000FF920F931F93CF93DF9300D000D000D082
:10154000CDB7DEB71B018A013E832D83FA01C0802F
:10155000D180E280F380A7019601C701B6010E9405
:10156000BF2569837A838B839C83F801848095806F
:10157000A680B780A5019401C501B4010E94BF25D2
:101580002B013C01A701960169817A818B819C81A5
:101590000E9400286B017C01A5019401C301B201E6
:1015A0000E9400289B01AC01C701B6010E94BF2523
:1015B00020E030E040E85FE30E94BE256B017C0143
:1015C000F8012085318542855385C301B2010E940F
:1015D00000282B013C01F801248535854685578577
:1015E00069817A818B819C810E9400289B01AC01DA
:1015F000C301B2010E94BE25A70196010E943226B6
:10160000F1016083718382839383ED81FE81648124
:10161000758186819781C084D184E284F3849B01A3
:10162000AC010E9400284B015C01A7019601C70193
:10163000B6010E9400289B01AC01C501B4010E94C3
:10164000BF250E9467289B01AC01ED81FE8160816E
:101650007181828193810E9489260E945D26F10119
:101660006483758386839783ED81FE8160817181B8
:1016700082819381C084D184E284F3849B01AC0194
:101680000E9400284B015C01A7019601C701B60129
:101690000E9400289B01AC01C501B4010E94BF2536
:1016A0000E9467289B01AC01ED81FE8164817581F8
:1016B000868197810E9489260E945D26F1016087BC
:1016C00071878287938780E026960FB6F894DEBFF5
:1016D0000FBECDBFDF91CF911F910F91FF90EF9083
:1016E000DF90CF90BF90AF909F908F907F906F9042
:1016F0005F904F903F902F9008958FE292E00E946C
:10170000B70F88E18093B8006BEA71E088E393E05B
:101710000E94172380E192E00E94DD176DE871E0DE
:1017200088E393E00E94172380E192E00E943D1835
:10173000882319F06FE671E002C065E571E088E387
:1017400093E00E94172361E471E088E393E00E9434
:10175000172380E192E00E949E0680930D026CEDBB
:1017600070E080E192E00E94C7186CE470E080E1D4
:1017700092E00E94CD186BEA7FEF80E192E00E9438
:10178000D3186CEF76E080E192E00E94C11880915E
:101790000D02811130C061E371E088E393E00E94A3
:1017A000172361E080E192E00E94D91862EF70E0B7
:1017B00088E393E00E94172343E050E068E576E079
:1017C00080E00E94201E80E192E00E9496178093A4
:1017D0000E0268EC70E088E393E00E94172381E03A
:1017E00080930F02809112029091130290930C0249
:1017F00080930B02089567EA70E088E393E00E940B
:10180000E0224AE050E060910D0288E393E00E94FC
:10181000A12365EA70E088E393E00C941723EF922C
:10182000FF920F931F93CF93DF937C018B01EA010B
:1018300080910F02882309F4C5C080918E01811127
:101840000CC02091090230910A0280910B02909104
:101850000C022817390708F4B5C010928E0180E1F8
:1018600092E00E94961780930E0280E192E00E941F
:10187000F11790930A028093090220910E0224FD31
:1018800003C08115944081F480E192E00E94B61774
:1018900066E970E088E393E0DF91CF911F910F91AB
:1018A000FF90EF900C94172321FF8CC040910B0206
:1018B00050910C028091090290910A0284179507B9
:1018C00048F480E192E00E94F11790930A0280931D
:1018D0000902ECCF69EC71E080E192E00E940D1802
:1018E0008091090290910A0220910B0230910C0222
:1018F000821B930B90930A028093090249EC51E0FA
:1019000069EB71E080E192E00E94500949EB51E0FF
:101910006BE971E080E192E00E94BF092BE931E0C0
:1019200049EB51E06FE871E080E192E00E948B0AA0
:1019300020E030E044E353E460918F017091900126
:1019400080919101909192010E9400282BED3FE03F
:1019500049E450E40E948926F70160837183828301
:10196000938320E030E044E353E46091930170916D
:10197000940180919501909196010E9400282BED91
:101980003FE049E450E40E948926F80160837183B6
:101990008283938320E030E044E353E46091970135
:1019A000709198018091990190919A010E9400286C
:1019B0002BED3FE049E450E40E9489266883798357
:1019C0008A839B83DF91CF911F910F91FF90EF90BE
:1019D0000895CF92EF920F93CF93DF93CDB7DEB7F9
:1019E0002C970FB6F894DEBF0FBECDBF40E855E28E
:1019F00068E373E0CE0101960E948B1B89819A8176
:101A000090938301809382018B819C8190938501C7
:101A1000809384018D81809386018E8180938701DC
:101A2000BE01695F7F4F88E891E00E947324CE0178
:101A300001960E94D61B64E171E0CE0101960E94DE
:101A40005D244EE751E0BE016F5F7F4F82E891E079
:101A50000E94B41CCE0101960E94EF2367E171E061
:101A6000CE0101960E945D244AE751E0BE016F5FFE
:101A70007F4F82E891E00E94B41CCE0101960E9443
:101A8000EF236AE171E0CE0101960E945D244AE0F5
:101A900051E0BE016F5F7F4F82E891E00E94B41C6D
:101AA000CE0101960E94EF236DE171E0CE01019617
:101AB0000E945D244EE051E0BE016F5F7F4F82E8DF
:101AC00091E00E94B41CCE0101960E94EF2360E2D7
:101AD00071E0CE0101960E945D244CE556E0BE0106
:101AE0006F5F7F4F82E891E00E94031CCE01019658
:101AF0000E94EF2363E271E0CE0101960E945D2413
:101B000042E856E0BE016F5F7F4F82E891E00E949D
:101B1000031CCE0101960E94EF230E947D0B56E02C
:101B2000C52E6EE0E62E0FE02CE04BE065E085E18F
:101B300093E00E94BA142CE231E04AE069E085E1CA
:101B400093E00E94F41348E067E085E193E00E948F
:101B50001D140E9482062C960FB6F894DEBF0FBEAD
:101B6000CDBFDF91CF910F91EF90CF900895CF929D
:101B7000DF92EF92FF92CF93DF93CDB7DEB72C9732
:101B80000FB6F894DEBF0FBECDBF64EF71E08FE6F5
:101B900091E00E94231B882331F185E193E00E94AC
:101BA000F4146B017C0168E271E0CE0107960E949B
:101BB0005D24BE01695F7F4FCE0101960E948A2499
:101BC000B701A601CE0101960E941C25BC0188E345
:101BD00093E00E942923CE0101960E94EF23CE01BB
:101BE00007960E94EF232C960FB6F894DEBF0FBE27
:101BF000CDBFDF91CF91FF90EF90DF90CF90089510
:101C0000CF92DF92EF92FF92CF93DF93CDB7DEB703
:101C10002C970FB6F894DEBF0FBECDBF64E670E020
:101C200088E691E00E94231B882309F480C047E2E4
:101C300052E06BE272E083E292E00E940F0CC090EF
:101C40002302D0902402E0902502F09026026AE25E
:101C500071E0CE0107960E945D24BE01695F7F4F4F
:101C6000CE0101960E948A24B701A601CE010196F9
:101C70000E941C25BC0188E393E00E942923CE0129
:101C800001960E94EF23CE0107960E94EF23C09099
:101C90002B02D0902C02E0902D02F0902E026CE2EC
:101CA00071E0CE0107960E945D24BE01695F7F4FFF
:101CB000CE0101960E948A24B701A601CE010196A9
:101CC0000E941C25BC0188E393E00E942923CE01D9
:101CD00001960E94EF23CE0107960E94EF23C09049
:101CE0002702D0902802E0902902F0902A026EE2AA
:101CF00071E0CE0107960E945D24BE01695F7F4FAF
:101D0000CE0101960E948A24B701A601CE01019658
:101D10000E941C25BC0188E393E00E942923CE0188
:101D200001960E94EF23CE0107960E94EF232C9686
:101D30000FB6F894DEBF0FBECDBFDF91CF91FF90FD
:101D4000EF90DF90CF90089582E891E00E94651DAA
:101D50000E94000E0C94B70D80E192E00E943617AD
:101D600080E090E0A0E8BFE38093B9019093BA01CE
:101D7000A093BB01B093BC011092BD011092BE01B3
:101D80001092BF011092C0011092C1011092C201C5
:101D90001092C3011092C4011092C5011092C601A5
:101DA0001092C7011092C8011092B4011092B301B1
:101DB0001092B6011092B5011092B8011092B701BD
:101DC0001092AE011092AD011092B0011092AF01CD
:101DD0001092B2011092B1011092A8011092A701C5
:101DE0001092AA011092A9011092AC011092AB01BD
:101DF00010929B0110929C0110929D0110929E01E5
:101E000010929F011092A0011092A1011092A201C4
:101E10001092A3011092A4011092A5011092A601A4
:101E200082E891E00E94481B8FE691E00E94201B0F
:101E300088E691E00C94201B82E891E00C94D61B7C
:101E400080915F0290E020916002821B91090895C9
:101E50002091600280915F02281750F4E22FF0E099
:101E6000EF59FD4F808190E02F5F2093600208952D
:101E70008FEF9FEF0895E091600280915F02E81775
:101E800030F4F0E0EF59FD4F808190E008958FEF3E
:101E90009FEF08950895CF92DF92EF92FF920F93F4
:101EA0001F93CF93DF937C01CB018A0120913B02EA
:101EB000222389F0EB016B01C40ED51ECC15DD0584
:101EC00069F06991D701ED91FC910190F081E02DCD
:101ED000C7010995F3CF642F0E94AA10C801DF91B2
:101EE000CF911F910F91FF90EF90DF90CF900895C9
:101EF000CF93DF931F92CDB7DEB7698320913B026A
:101F00002223D1F020913C02203240F021E030E049
:101F1000FC013383228380E090E015C080913D0274
:101F2000E82FF0E0E25CFD4F998190838F5F809312
:101F30003D0280933C0205C061E0CE0101960E9403
:101F4000AA1081E090E00F90DF91CF910895FC01FD
:101F50001382128248EE53E060E070E044835583C0
:101F60006683778384E391E0918380830895109260
:101F7000600210925F0210923D0210923C020C949B
:101F8000F50F862F413208F040E261E672E00E94D0
:101F900013101092600280935F02089521E00C9468
:101FA000C10F81E080933B0260935E0210923D027C
:101FB00010923C0208950F93062F21E040913C02BD
:101FC0006EE372E080915E020E94571010923D0213
:101FD00010923C0210923B020F91089561E00C9424
:101FE000DB0F8FE292E00C94A70F1092EE0281E0DB
:101FF0008093EC021092EB0261E082E10E944220A9
:1020000061E083E10E944220E9EBF0E080818E7F75
:10201000808380818D7F808388E48093B80085E40D
:102020008093BC000895413208F03FC09091EE02C9
:102030009111FCCF91E09093EE022093EC022FEFF0
:10204000209381021092C602240F2093C502909320
:10205000ED029091ED02880F892B8093ED02809123
:10206000EB02813041F41092EB028091ED028093FB
:10207000BB0085EC01C085EE8093BC008091EE0230
:102080008130E1F38091C602841710F44091C602BA
:1020900027EC32E0FB01D9018A2F821B841718F448
:1020A0008D918193F9CF842F089580E008950F9347
:1020B000413208F046C09091EE029111FCCF92E0BF
:1020C0009093EE020093EC029FEF909381021092A6
:1020D000C6024093C502FB0167EC72E0DB019A2F58
:1020E000961B941718F491919D93F9CF1092ED02DD
:1020F0009091ED02880F892B8093ED028091EB0285
:10210000813041F41092EB028091ED028093BB008C
:1021100085EC01C085EE8093BC00222321F08091E4
:10212000EE028230E1F3809181028F3F61F0809175
:102130008102803251F080918102803341F483E04A
:1021400007C081E005C080E003C082E001C084E0F8
:102150000F910895613298F42091EE02243089F4B1
:102160006093A302FC0185EA92E0DC012A2F281B80
:10217000261718F421912D93F9CF80E0089581E07E
:10218000089582E0089585ED8093BC008091BC00A5
:1021900084FDFCCF1092EE02089585EC8093BC0084
:1021A0001092EE0208951F920F920FB60F92112413
:1021B0002F933F934F935F936F937F938F939F934F
:1021C000AF93BF93EF93FF938091B900887F8036E0
:1021D00009F49CC068F5883209F45BC090F4803142
:1021E00009F454C038F4882309F4F5C0883009F4A0
:1021F0004DC0F5C0883109F44CC0803209F45DC08F
:10220000EEC0803409F468C048F4803309F455C046
:10221000883309F0E4C080938102A8C0803509F4B6
:102220004FC0883509F45DC0883409F0D8C0D5C0E6
:10223000883909F4C6C0A8F4883709F467C038F4AF
:10224000883609F463C0803709F460C0C8C0883894
:1022500009F4B7C0803909F45FC0803809F0BFC005
:102260005BC0803B09F485C038F4803A09F466C04D
:10227000883A09F47EC0B3C0803C09F4A6C0883C0B
:1022800009F4A3C0883B09F489C0A9C08091ED027C
:1022900010C09091C6028091C502981770F5E09128
:1022A000C60281E08E0F8093C602F0E0E953FD4F35
:1022B00080818093BB0085EC85C0809381028DC0B6
:1022C000E091C60281E08E0F8093C6028091BB0030
:1022D000F0E0E953FD4F80839091C6028091C502E2
:1022E0006DC0E091C60281E08E0F8093C60280919E
:1022F000BB00F0E0E953FD4F80838091EC02811137
:102300006CC081E08093EB0284EA60C083E080933C
:10231000EE0210928202CFCF80918202803208F0CA
:1023200050C0E091820281E08E0F80938202809102
:10233000BB00F0E0ED57FD4F8083BDCF809182025E
:10234000803230F4E0918202F0E0ED57FD4F1082D0
:102350000E94C3106091820270E0E091E702F09168
:10236000E80283E892E00995109282020E94CD1063
:1023700036C084E08093EE021092A4021092A30271
:10238000E091E902F091EA0209958091A30281119E
:1023900005C081E08093A3021092A502E091A402FF
:1023A00081E08E0F8093A402F0E0EB55FD4F808119
:1023B0008093BB009091A4028091A302981708F427
:1023C0007ACF85E88093BC000AC085EC8093BC007E
:1023D0001092EE0204C0109281020E94C310FF917D
:1023E000EF91BF91AF919F918F917F916F915F918D
:1023F0004F913F912F910F900FBE0F901F90189506
:102400001F920F920FB60F9211242F933F934F9369
:102410005F936F937F938F939F93AF93BF93EF934C
:10242000FF938091F00287FF05C010928500109203
:1024300084001AC02091F002332727FD3095809147
:10244000EF0290E0281739077CF48091F002992779
:1024500087FD9095FC01EE0FFF1FE80FF91FEF506D
:10246000FD4F808186FD15C08091F0028F5F8093C3
:10247000F0022091F002332727FD30958091EF0282
:1024800090E028173907BCF48091F0028C305CF1A1
:1024900012C08091F002992787FD9095FC01EE0F04
:1024A000FF1FE80FF91FEF50FD4F808160E08F7331
:1024B0000E944220D9CF809184009091850004969B
:1024C00080349C4918F480E49CE905C08091840024
:1024D00090918500049690938900809388008FEFF7
:1024E0008093F00238C02091840030918500809163
:1024F000F002992787FD9095FC01EE0FFF1FE80F72
:10250000F91FEF50FD4F81819281820F931F9093AD
:102510008900809388008091F002992787FD90952B
:10252000FC01EE0FFF1FE80FF91FEF50FD4F8081F8
:1025300086FF11C08091F002992787FD9095FC01DC
:10254000EE0FFF1FE80FF91FEF50FD4F808161E094
:102550008F730E944220FF91EF91BF91AF919F91A5
:102560008F917F916F915F914F913F912F910F903C
:102570000FBE0F901F9018952091EF022C30A0F401
:1025800031E0320F3093EF02FC012083822F90E084
:10259000FC01EE0FFF1FE80FF91FEF50FD4F88EB16
:1025A0009BE09283818308952FEFFC01208308959F
:1025B000DF92EF92FF920F931F93CF93DF93EC0183
:1025C000D62E7A01890188818C3008F066C061E0DE
:1025D0008D2D0E9409208881A82FB0E0FD01EE0F0B
:1025E000FF1FEA0FFB1FEF50FD4F2D2D2F73908122
:1025F000907C922B908360E272E06E197F0977FFE6
:1026000002C06D5F7F4F7595679575956795698376
:1026100040E659E0401B510B57FF02C04D5F5F4F32
:1026200055954795559547954A836CE00E94CD286E
:102630009CE0899FB001112420E030E0A901460F01
:10264000571FFA01EE0FFF1FE40FF51FEF50FD4F6C
:10265000908196FD16C02F5F3F4F2C30310571F7EA
:1026600081110FC01092800082E08093810010924F
:10267000850010928400B19A80916F0082608093EF
:102680006F00888190E0FC01EE0FFF1FE80FF91F3B
:10269000EF50FD4F8081806480838881DF91CF91EE
:1026A0001F910F91FF90EF90DF90089520E639E0A1
:1026B00040E252E00C94D812FC0180818C3070F51D
:1026C000918128E830E0291B310997FD3395220FCD
:1026D000331F220F331F621773077CF0928128E5A6
:1026E00032E0291B310997FD3395220F331F220F4A
:1026F000331F621773070CF49B0122503109220F1C
:10270000331F4FB7F89490E0FC01EE0FFF1FE80F66
:10271000F91FEF50FD4F328321834FBF08954F9231
:102720005F926F927F92AF92BF92CF92DF92EF92C1
:10273000FF920F931F93CF93DF93EC01603282E0FF
:1027400078070CF040C077FD06C0653B71052CF0A2
:1027500064EB70E002C060E070E0898128E830E05E
:10276000281B310987FD3395220F331F220F331F9A
:102770005901CC24B7FCC094DC2C882777FD8095C8
:10278000982F2A8148E552E0421B510927FD5395B5
:10279000440F551F440F551F2A01662457FC6094AF
:1027A000762C7F926F925F924F9214EBE12EF12C78
:1027B00000E010E020E030E0A9010E94A8230F9083
:1027C0000F900F900F90CE01DF91CF911F910F913D
:1027D000FF90EF90DF90CF90BF90AF907F906F9081
:1027E0005F904F900C945C131F93CF93DF93EC0199
:1027F000162F6E834F83220F331FB90180E090E0C4
:102800000E9422272DEC3CEC48EE51E40E94002867
:1028100020E030E040E85FE30E94BF250E94F626FA
:102820007987688761E0812F0E94092062E08F81AB
:10283000DF91CF911F910C9409201F93CF93DF93C9
:10284000EC01162F642F70E040960E945613612F02
:1028500070E0CE014396DF91CF911F910C945613F7
:10286000653B08F064EB70E040960C948F13653B79
:1028700008F064EB70E043960C948F13CF93FC0147
:102880008181C2816230710511F48381C48141115B
:1028900005C061E00E94422060E004C060E00E9448
:1028A000422061E08C2FCF910C9442200F931F9314
:1028B000CF93DF938C0161308FEF78075CF0EB01F1
:1028C0006F3F710519F014F0CFEFD0E0D7FD04C0D1
:1028D00040E003C0C1E0DFEF41E062E070E0C8012A
:1028E0000E943E14BE01D7FF03C071956195710926
:1028F000F8018581DF91CF911F910F910C94811F79
:102900000F931F93CF93DF938C0161308FEF780784
:102910005CF0EB016F3F710519F014F0CFEFD0E0E0
:10292000D7FD04C040E003C0C1E0DFEF41E063E059
:1029300070E0C8010E943E14BE01D7FF03C071952C
:1029400061957109F8018081DF91CF911F910F91FD
:102950000C94811F0F931F93CF93DF93EC018B0196
:102960000E948014B801CE01DF91CF911F910F9189
:102970000C945614CF92EF920F93CF93DF93EC0108
:10298000862F688349832A830B83EC82CD8261E0A2
:102990000E94092061E089810E94092061E08A810A
:1029A0000E94092061E08B810E94092061E08C81F6
:1029B0000E94092061E08D810E94092040E062E0D0
:1029C00070E0CE010E943E1440E063E070E0CE0172
:1029D0000E943E1460E070E0CE01DF91CF910F9134
:1029E000EF90CF900C94AA14CF93DF93EC0160E0AA
:1029F0008E810E94422082E090E00E943B1F61E0B5
:102A00008E810E9442208AE090E00E943B1F60E09D
:102A10008E810E9442202885398540E050E061E0A7
:102A20008F810E9478200E9424272DEC3CEC48EEF8
:102A300051E40E94892620E030E040E05FE30E94FC
:102A400000280E94F1260E942427DF91CF9108954B
:102A500085E293E00E94BC1288E293E00C94BC12E1
:102A6000EF92FF920F931F93CF93DF9300D0CDB7D8
:102A7000DEB7062F142F682F8FE292E029833A8366
:102A80000E94D10F602F8FE292E00E94780F29817F
:102A9000022FE22E3A81F32E8E2D801B811740F4F7
:102AA000F70161917F018FE292E00E94780FF4CFED
:102AB0008FE292E00E94EE0F91E0811190E0892F69
:102AC0000F900F90DF91CF911F910F91FF90EF909A
:102AD0000895CF93DF931F92CDB7DEB749839E0150
:102AE0002F5F3F4F41E00E9430150F90DF91CF9153
:102AF0000895DF92EF92FF920F931F93CF93DF938E
:102B0000C62F042F7901682F8FE292E00E94D10F27
:102B10006C2F8FE292E00E94780F10E0000F111FDF
:102B2000D12CCD2DD0E0C017D1078CF4CC0FDD1FF8
:102B3000CE0DDF1D69818FE292E00E94780F6881DF
:102B40008FE292E00E94780FD394D394EACF8FE281
:102B500092E00E94EE0F91E0811190E0892FDF91C9
:102B6000CF911F910F91FF90EF90DF900895CF9339
:102B7000DF9300D0CDB7DEB75A8349839E012F5F24
:102B80003F4F41E00E9479150F900F90DF91CF9158
:102B900008953F924F925F926F927F928F929F9291
:102BA000AF92BF92CF92DF92EF92FF920F931F935B
:102BB000CF93DF9300D000D000D0CDB7DEB7682E22
:102BC000562E742E3A8329830E94E41E6B017C01E9
:102BD000312C412C872D90E09C838B834801A12CC4
:102BE000B12C3714B0F5662D8FE292E00E94D10F20
:102BF000652D8FE292E00E94780F8FE292E00E94B2
:102C0000EE0F662D8FE292E00E94D10F4B815C8126
:102C1000431951094132510514F040E250E0662D4C
:102C20008FE292E00E94CE0F8FE292E00E94200F8E
:102C3000892B59F10115110579F10E94E41E6C19D7
:102C40007D098E099F09681579058A059B0520F184
:102C50001CC00115110589F10E94E41E6C197D0943
:102C60008E099F0920E030E0601771078207930703
:102C700020F1872D90E0242D332727FD309528174C
:102C80003907DCF444244A9418C0872D90E2971544
:102C900008F480E2380EA5CFE981FA81E40DF11D38
:102CA00047FCFA95FE83ED838FE292E00E94280FA5
:102CB000ED81FE8180834394B7CF842D26960FB695
:102CC000F894DEBF0FBECDBFDF91CF911F910F9162
:102CD000FF90EF90DF90CF90BF90AF909F908F903C
:102CE0007F906F905F904F903F9008950F931F9348
:102CF00089019A0141E00E94C9151F910F91089521
:102D0000CF92DF92EF92FF920F931F93CF93DF93B7
:102D10001F92CDB7DEB7C42ED22E9701AE014F5F02
:102D20005F4F0E9476168823F1F04C2D50E04D192C
:102D300051094F5F5F4F61E070E002C0660F771F7F
:102D4000DA94E2F761507109042E01C0660F0A940B
:102D5000EAF72981262330E002C0359527954A9568
:102D6000E2F7F80120830F90DF91CF911F910F912F
:102D7000FF90EF90DF90CF900895EF92FF920F9326
:102D80001F93CF93DF931F92CDB7DEB7182F062F77
:102D9000F42EE22E2091120130911301AE014F5F0B
:102DA0005F4F0E947616898121E030E00F2C01C030
:102DB000220F0A94EAF7EE2019F0482F422B03C0A5
:102DC000422F409548234983602F812F0E94691527
:102DD0000F90DF91CF911F910F91FF90EF90089589
:102DE000DF92EF92FF920F931F93CF93DF931F9287
:102DF000CDB7DEB7F82EE62ED42E122F2091120179
:102E000030911301AE014F5F5F4F0E947616882309
:102E100019F14D2D50E0411B51094F5F5F4FE1E02B
:102E2000F0E002C0EE0FFF1F1A95E2F73197042E73
:102E300001C0EE0F0A94EAF701C0000F4A95EAF7C5
:102E40004E2F409589814823E0234E2B49836E2DD8
:102E50008F2D0E94691501C080E00F90DF91CF9106
:102E60001F910F91FF90EF90DF90089528E6FC01ED
:102E700020830895462F69E1FC0180810C94691537
:102E80000F93062F23E045E06AE1FC0180810E9458
:102E9000F0160F9108950F93062F23E042E06AE1A8
:102EA000FC0180810E94F0160F9108950F93062F68
:102EB00022E044E06BE1FC0180810E94F0160F915A
:102EC00008950F93062F22E044E06CE1FC0180811D
:102ED0000E94F0160F910895462F6FE1FC0180814A
:102EE0000C946915462F60E2FC0180810C946915F1
:102EF000462F61E2FC0180810C946915462F62E245
:102F0000FC0180810C946915643048F4262F220F4F
:102F1000260F2B5D622FFC0180810C9469150895AA
:102F2000462F68E3FC0180810C946915CF93DF93F1
:102F3000EC012091120130911301AC014F5F5F4F02
:102F40006AE388810E9476168981DF91CF91089586
:102F5000262F46E06AE6FC0180810C94BD16262FE0
:102F600045E06AE6FC0180810C94BD1621E042E058
:102F70006AE6FC0180810C94BD1621E041E06AE61E
:102F8000FC0180810C94BD1621E047E06BE6FC015A
:102F900080810C94BD16262F46E06BE6FC018081F3
:102FA0000C94BD160F93062F23E042E06BE6FC0164
:102FB00080810E94F0160F910895CF93DF93EC016A
:102FC00061E00E94D21760E0CE010E94561760E0D7
:102FD000CE010E94611760E0CE01DF91CF910C9489
:102FE000CB170F931F93CF93DF93EC010091120146
:102FF000109113019C012F5F3F4F42E062E78881EF
:103000000E94C915898190E0982F88272A81822BF8
:10301000DF91CF911F910F9108950F931F939B0103
:10302000442351F0009112011091130164E7FC0157
:1030300080810E94C91502C0FB0110821F910F916F
:103040000895EF92FF920F931F93CF93DF93EC01BC
:10305000E0901201F09013018C010F5F1F4F26E0EA
:1030600046E065E788810E9480168981DF91CF91D3
:103070001F910F91FF90EF9008950E94211891E009
:10308000843309F090E0892F0895262F40E060E016
:10309000FC0180810C94BD16EF92FF920F931F9359
:1030A000CF93DF93EC01E0901201F09013018C01BB
:1030B0000F5F1F4F26E046E060E088810E94801687
:1030C0008981DF91CF911F910F91FF90EF9008952B
:1030D0000F93062F26E046E060E0FC0180810E940D
:1030E000F0160F910895EF92FF920F931F93CF93D5
:1030F000DF93EC01E0901201F09013018C010F5F5F
:103100001F4F26E046E061E088810E948016898199
:10311000DF91CF911F910F91FF90EF9008950F9342
:10312000062F26E046E061E0FC0180810E94F01657
:103130000F910895EF92FF920F931F93CF93DF9318
:10314000EC01E0901201F09013018C010F5F1F4F12
:1031500026E046E062E088810E9480168981DF9146
:10316000CF911F910F91FF90EF9008950F93062F2D
:1031700026E046E062E0FC0180810E94F0160F919B
:103180000895AB016AE0FC0180810C94B715AB0196
:1031900063E1FC0180810C94B715AB0165E1FC0192
:1031A00080810C94B715AB0167E1FC0180810C9420
:1031B000B715262F47E06AE6FC0180810C94BD1606
:1031C00021E043E06AE6FC0180810C94BD166F713A
:1031D0002111606241116064462F6DE6FC0180811F
:1031E0000C946915462F6EE6FC0180810C946915DC
:1031F0005F926F927F928F929F92AF92BF92CF9287
:10320000DF92EF92FF920F931F93CF93DF937C0196
:103210005B016A01622E702E20E040E0662D0E9464
:10322000E718602FC7010E94F218C0E0D0E0812C9F
:1032300099249394CC15DD05A8F5CE014096C816C7
:10324000D90618F45C2C5C1A02C0A0E15A2E252D78
:1032500030E0C401871991098217930714F4572CA1
:103260005194009112011091130195012C0F3D1FF3
:10327000452D6FE6F70180810E94C915C50DD11D4E
:10328000750CCC15DD05B0F6711001C0639420E01B
:1032900040E0662DC7010E94E718672DC7010E9414
:1032A000F218C8CFDF91CF911F910F91FF90EF904F
:1032B000DF90CF90BF90AF909F908F907F906F9056
:1032C0005F9008952F923F924F925F926F927F92FC
:1032D0008F929F92AF92BF92CF92DF92EF92FF9226
:1032E0000F931F93CF93DF9300D000D01F92CDB7E1
:1032F000DEB79D838C837B836A834A01322ED02E76
:10330000E98220E040E0632D0E94E718602F8C8165
:103310009D810E94F218E980EE2029F080E190E082
:103320000E945B295C01CC2039F080E190E00E9492
:103330005B29582E292E02C0512C212CE12CF12C76
:10334000E814F90408F07AC0C70140968816990677
:1033500018F4482C4E1802C010E1412E242D30E004
:1033600080E091E08D1991098217930714F44D2C98
:103370004194EA81FB81EE0DFF1DCC2059F0852D93
:10338000A52DB22D9A2F981B941530F494919D93EE
:103390003196F8CF5E2E2F2E252D322D442D6FE63F
:1033A000AC81BD818C910E943015642C712CB98147
:1033B000BB2369F1A114B10451F120E040E0632D79
:1033C0008C819D810E94E7186D2D8C819D810E94CA
:1033D000F21800911201109113019501442D6FE62E
:1033E000EC81FD8180810E94C915A301B501852D65
:1033F000922D0E94582B892B51F0C5010E94F32970
:10340000CC2049F1852D922D0E94F32924C0E60C91
:10341000F71CD40CE814F90408F092CFD11001C0C5
:10342000339420E040E0632D8C819D810E94E71859
:103430006D2D8C819D810E94F21882CFF981FF232E
:1034400019F0C5010E94F329CC2039F0852D922D69
:103450000E94F32902C080E001C081E00F900F902C
:103460000F900F900F90DF91CF911F910F91FF90D0
:10347000EF90DF90CF90BF90AF909F908F907F9014
:103480006F905F904F903F902F900895CF92EF9262
:103490000F93CC24C3940E9462190F91EF90CF90A8
:1034A00008952F923F924F925F926F927F928F92E8
:1034B0009F92AF92BF92CF92DF92EF92FF920F93C3
:1034C0001F93CF93DF9300D01F92CDB7DEB74C018F
:1034D0007B836A833A01D22E222339F088E090E080
:1034E0000E945B29182FF92E02C010E0F12C212C2C
:1034F000312C2614370408F051C0EA81FB81E20D1B
:10350000F31DC10103965C01DD20C1F04491F1017E
:1035100031968A819B81E80FF91F0491F10132965F
:10352000E80FF91F5490511044C0F4E02F0E311CE5
:10353000EA81FB81EA0DFB1D84910DC04081018170
:103540005280EA81FB81E80FF91F51100DC084E021
:10355000280E311C80818130D1F442E368E3F4010C
:1035600080810E946915C5CF1E2FFF2E452C512C3E
:10357000C12CEE24E394242FA201612F7F2DC401DE
:103580000E94621912012A0C3B1C8111B2CFDD206E
:1035900061F0812F9F2D0E94F32907C0DD2039F0B3
:1035A000812F9F2D0E94F32902C080E024C081E07A
:1035B00022C0252C312CF2E0F51548F4B101812F01
:1035C0009F2D49830E94822A182FF92E4981812F2D
:1035D0009F2DA0E0B0E02A813B812A0D3B1DA21562
:1035E000B30520F6F901EA0FFB1F5491FC0151933A
:1035F000CF011196F4CF0F900F900F90DF91CF91E4
:103600001F910F91FF90EF90DF90CF90BF90AF9000
:103610009F908F907F906F905F904F903F902F90F2
:10362000089521E00C94511A462F60E7FC01808137
:103630000C946915462F61E7FC0180810C94691593
:10364000FC01108208950F931F93CF93DF93EC0139
:103650008B018881811108C00E94E41E6B837C83EA
:103660008D839E8381E088830E94E41E2B813C81B0
:10367000621B730B7A8369830617170718F4188285
:1036800081E001C080E0DF91CF911F910F910895FB
:10369000EF92FF920F931F93CF93DF9300D000D050
:1036A00000D0CDB7DEB78C01FC0114827C01F6E0BE
:1036B000EF0EF11C68E571E0C7010E945D2488E30C
:1036C00093E0F8019183808326E040E855E260E0D2
:1036D00070E00E94872164E670E0C7010E94202408
:1036E00068E571E0CE0101960E945D24F801148224
:1036F00013821282CE0101960E94EF2326960FB606
:10370000F894DEBF0FBECDBFDF91CF911F910F9117
:10371000FF90EF900895AF92BF92CF92DF92EF9219
:10372000FF920F931F93CF93DF9300D000D000D070
:10373000CDB7DEB78C016B015A01FC0114827C010C
:10374000F6E0EF0EF11C68E571E0C7010E945D2410
:10375000F801D182C082A50160E070E026E0C601D8
:103760000E94872164E670E0C7010E94202468E57A
:1037700071E0CE0101960E945D24F801148213824B
:103780001282CE0101960E94EF2326960FB6F8947E
:10379000DEBF0FBECDBFDF91CF911F910F91FF9084
:1037A000EF90DF90CF90BF90AF9008950F931F934D
:1037B000CF93DF938C01FC01828193810097D9F034
:1037C000FC013297208131814AE0429FE001439F12
:1037D000D00D1124C80FD91FCE01F80122813381E9
:1037E0002A978217930721F0CE010E94EF23F4CF8E
:1037F00002970E94A022C8010696DF91CF911F91E7
:103800000F910C94EF236F927F928F929F92AF92C1
:10381000BF92CF92DF92EF92FF920F931F93CF93BD
:10382000DF93EC015B016A018C818F5F8C83882EB2
:10383000912C2AE0829FC001112402960E949E22B0
:10384000FC01819291928F01612C712C7F01FFEF1D
:103850006F1A7F0AC40186199709019669F068E515
:1038600071E0C8010E945D24F8011782168211865A
:103870001086065F1F4FEBCF712C272D30E08C8117
:1038800090E001976A817B8128173907DCF43AE0E0
:10389000739E800111244B01800E911E0E0D1F1D81
:1038A000B401C8010E947324F40186819781F80154
:1038B00097838683F40180859185F80191878087BD
:1038C0007394DBCF61157105D9F0FB0132978081CC
:1038D00091812AE0289F8001299F100D1124060F55
:1038E000171FC8012A813B810A50110982179307CB
:1038F00021F0C8010E94EF23F4CF02970E94A0227A
:10390000FB82EA828C8197014AE0849F200D311D61
:103910001124C901B5010A970E947324EA81FB8131
:103920008C81DF019AE0899FA00DB11D11241A97A7
:103930001796DC92CE9216978C812AE0829FE00D3A
:10394000F11D11243A9711861086DF91CF911F91B6
:103950000F91FF90EF90DF90CF90BF90AF909F902E
:103960008F907F906F9008956F927F928F929F9229
:10397000AF92BF92CF92DF92EF92FF920F931F937D
:10398000CF93DF93EC015B016A018C818F5F8C83A5
:10399000882E912C2AE0829FC001112402960E9459
:1039A0009E22FC01819291928F01612C712C7F01EA
:1039B000FFEF6F1A7F0AC40186199709019669F013
:1039C00068E571E0C8010E945D24F8011782168243
:1039D00011861086065F1F4FEBCF712C272D30E02C
:1039E0008C8190E001976A817B8128173907DCF48C
:1039F0003AE0739E800111244B01800E911E0E0D42
:103A00001F1DB401C8010E947324F40186819781AF
:103A1000F80197838683F40180859185F801918769
:103A200080877394DBCF61157105D9F0FB01329764
:103A3000808191812AE0289F8001299F100D112407
:103A4000060F171FC8012A813B810A5011098217EE
:103A5000930721F0C8010E94EF23F4CF02970E9440
:103A6000A022FB82EA828C8197014AE0849F200D8C
:103A7000311D1124C901B5010A970E947324EA81FE
:103A8000FB818C81DF019AE0899FA00DB11D11247B
:103A90001A971996DC92CE9218978C812AE0829F11
:103AA000E00DF11D11243A9717821682DF91CF9114
:103AB0001F910F91FF90EF90DF90CF90BF90AF904C
:103AC0009F908F907F906F900895AF92BF92CF920A
:103AD000DF92EF92FF920F931F93CF93DF93CDB7B7
:103AE000DEB72C970FB6F894DEBF0FBECDBF8C01AA
:103AF0007C0186E0E80EF11CD8018D919C91DC01DF
:103B0000ED91FC910480F581E02D0995892BA9F0B8
:103B1000D8018D919C91DC01ED91FC910680F7819B
:103B2000E02D09958A3021F481E0F801858305C0F4
:103B3000682FC7010E94D724DFCFF8018581882331
:103B400009F46DC060E471E0CE0107960E945D2427
:103B5000B12CC80106967C01D80114968C91B81638
:103B600008F052C09AE0B99E60011124D801129663
:103B7000ED91FC911397EC0DFD1D2481358140E002
:103B800050E0B701CE0101960E946D25F8018281B7
:103B90009381BE016F5F7F4F8C0D9D1D0E945A2542
:103BA000A82ECE0101960E94EF23AA2059F1D80138
:103BB0001296ED91FC911397EC0DFD1DC084D184FC
:103BC000C114D104D9F01A962D913C911B974481D0
:103BD00055814F5F5F4FB701CE0101960E946D2561
:103BE000CE0101960E94B225F60160837183828323
:103BF0009383CE0101960E94EF2304C00680F781D3
:103C0000E02D0995B394A8CF68E571E0C7010E9443
:103C10009324F8011582CE0107960E94EF232C967B
:103C20000FB6F894DEBF0FBECDBFDF91CF911F91CD
:103C30000F91FF90EF90DF90CF90BF90AF900895DD
:103C40008230E8F4E82FF0E0EE0FFF1FE55DFC4F57
:103C500071836083813041F0809169008C7F842B77
:103C600080936900E89A089580916900440F551F78
:103C7000440F551F837F842B80936900E99A089530
:103C80001F920F920FB60F9211242F933F934F93D1
:103C90005F936F937F938F939F93AF93BF93EF93B4
:103CA000FF9380912B0390912C03892B29F0E091B5
:103CB0002B03F0912C030995FF91EF91BF91AF91E8
:103CC0009F918F917F916F915F914F913F912F9134
:103CD0000F900FBE0F901F9018951F920F920FB666
:103CE0000F9211242F933F934F935F936F937F9382
:103CF0008F939F93AF93BF93EF93FF9380912D0387
:103D000090912E03892B29F0E0912D03F0912E0341
:103D10000995FF91EF91BF91AF919F918F917F9105
:103D20006F915F914F913F912F910F900FBE0F9028
:103D30001F9018951F920F920FB60F9211242F9378
:103D40003F938F939F93AF93BF9380913003909154
:103D50003103A0913203B091330330912F0323E05C
:103D6000230F2D3720F40196A11DB11D05C026E8B3
:103D7000230F0296A11DB11D20932F0380933003C2
:103D800090933103A0933203B093330380913403B3
:103D900090913503A0913603B09137030196A11D90
:103DA000B11D8093340390933503A0933603B093F1
:103DB0003703BF91AF919F918F913F912F910F90BA
:103DC0000FBE0F901F9018952FB7F8946091300395
:103DD0007091310380913203909133032FBF089586
:103DE0003FB7F8948091340390913503A091360346
:103DF000B091370326B5A89B05C02F3F19F0019657
:103E0000A11DB11D3FBF6627782F892F9A2F620F02
:103E1000711D811D911D42E0660F771F881F991F3C
:103E20004A95D1F70895CF92DF92EF92FF92CF9308
:103E3000DF936B017C010E94F01EEB01C114D104E1
:103E4000E104F10489F00E94BD250E94F01E6C1B64
:103E50007D0B683E734090F381E0C81AD108E108F9
:103E6000F108C851DC4FEACFDF91CF91FF90EF907E
:103E7000DF90CF9008958230910538F0880F991F18
:103E8000880F991F05970197F1F70895789484B5E5
:103E9000826084BD84B5816084BD85B5826085BD46
:103EA00085B5816085BDEEE6F0E08081816080832C
:103EB000E1E8F0E01082808182608083808181600F
:103EC0008083E0E8F0E0808181608083E1EBF0E0D6
:103ED000808184608083E0EBF0E08081816080837A
:103EE000EAE7F0E080818460808380818260808363
:103EF0008081816080838081806880831092C1008E
:103F000008951F93CF93DF93182FEB0161E00E9478
:103F10000920209711F460E004C0CF3FD10539F4A7
:103F200061E0812FDF91CF911F910C944220E12F0E
:103F3000F0E0E85CF54FE491E330F9F048F4E1306B
:103F4000B9F0E230A1F584B5806284BDC8BD34C04B
:103F5000E730E9F0E83019F1E43049F5809180006C
:103F6000806280938000D0938B00C0938A0024C02D
:103F700084B5806884BDC7BD1FC080918000806803
:103F800080938000D0938900C093880015C08091F1
:103F9000B00080688093B000C093B3000DC08091E2
:103FA000B00080628093B000C093B40005C0C038F8
:103FB000D1050CF0B5CFAFCFDF91CF911F91089510
:103FC000833081F028F4813099F08230A1F0089597
:103FD0008730A9F08830B9F08430D1F48091800026
:103FE0008F7D03C0809180008F778093800008953B
:103FF00084B58F7702C084B58F7D84BD089580918C
:10400000B0008F7703C08091B0008F7D8093B000A7
:104010000895CF93DF9390E0FC01E45BF54F24918A
:10402000FC01E05AF54F8491882349F190E0880F14
:10403000991FFC01E857F54FA591B4918258954F0F
:10404000FC01C591D4919FB7611108C0F8948C917F
:10405000209582238C93888182230AC0623051F498
:10406000F8948C91322F309583238C938881822B06
:10407000888304C0F8948C91822B8C939FBFDF912E
:10408000CF9108950F931F93CF93DF931F92CDB7D6
:10409000DEB7282F30E0F901E85CF54F8491F90193
:1040A000E45BF54F1491F901E05AF54F04910023B8
:1040B000C9F0882321F069830E94E01F6981E02F05
:1040C000F0E0EE0FFF1FE258F54FA591B4919FB7B6
:1040D000F8948C91611103C01095812301C0812B4C
:1040E0008C939FBF0F90DF91CF911F910F910895F7
:1040F0000F931F93762F90E0FC01E45BF54F6491E2
:10410000FC01E05AF54FE4917111762FF0E0EE0FCB
:10411000FF1FEC58F54F8591949189019A013F70EA
:10412000472F0E941306611571058105910531F035
:104130006F5F7F4F8F4F9F4F9F7003C060E070E0B5
:10414000CB011F910F910895FC01818D228D90E08C
:10415000805C9F4F821B91098F7399270895FC0102
:10416000918D828D981731F0828DE80FF11D858D2C
:1041700090E008958FEF9FEF0895FC01918D828D5F
:10418000981761F0828DDF01A80FB11D5D968C91AB
:10419000928D9F5F9F73928F90E008958FEF9FEFB6
:1041A000089581E492E2892B49F080E090E0892B28
:1041B00029F00E94412281110C9400000895FC0115
:1041C000848DDF01A80FB11DA35ABF4F2C91848DA0
:1041D00090E001968F739927848FA689B7892C93D5
:1041E000A089B1898C9180648C93938D848D981370
:1041F00006C00288F389E02D80818F7D8083089539
:10420000CF93DF93EC01888D8823C9F0EA89FB897D
:10421000808185FD05C0A889B9898C9186FD0FC074
:104220000FB607FCF5CF808185FFF2CFA889B98949
:104230008C9185FFEDCFCE010E94DF20E7CFDF918B
:10424000CF910895CF92DF92FF920F931F93CF9358
:10425000DF931F92CDB7DEB76C0181E0D60158968F
:104260008C9358975B969C915B975C968C915C972E
:10427000981307C05096ED91FC915197808185FD70
:104280002EC0F601038D10E00F5F1F4F0F73112733
:10429000F02EF601848DF81211C00FB607FCF9CF8D
:1042A000D6015096ED91FC915197808185FFF1CF19
:1042B000C60169830E94DF206981EBCF838DE80FFF
:1042C000F11DE35AFF4F6083D6015B960C935B9719
:1042D0005296ED91FC915397808180620CC0D6017B
:1042E0005696ED91FC91579760835096ED91FC9115
:1042F000519780818064808381E090E00F90DF910E
:10430000CF911F910F91FF90DF90CF900895BF92B2
:10431000CF92DF92EF92FF92CF93DF93EC016A018D
:104320007B01B22EE889F98982E08083411581EE14
:10433000580761057105A1F060E079E08DE390E038
:10434000A70196010E94D92821503109410951093C
:104350005695479537952795211580E1380798F0B0
:10436000E889F989108260E874E88EE190E0A7019D
:1043700096010E94D92821503109410951095695C9
:10438000479537952795EC85FD853083EE85FF852C
:104390002083188EEC89FD89B082EA89FB898081AF
:1043A00080618083EA89FB89808188608083EA89D3
:1043B000FB89808180688083EA89FB8980818F7D89
:1043C0008083DF91CF91FF90EF90DF90CF90BF90EF
:1043D00008951F920F920FB60F9211242F938F936F
:1043E0009F93EF93FF93E0914803F09149038081FD
:1043F000E0914E03F0914F0382FD12C090818091B5
:1044000051038F5F8F7320915203821751F0E09117
:104410005103F0E0E85CFC4F958F8093510301C09D
:104420008081FF91EF919F918F912F910F900FBEFF
:104430000F901F9018951F920F920FB60F92112494
:104440002F933F934F935F936F937F938F939F939C
:10445000AF93BF93EF93FF9388E393E00E94DF2035
:10446000FF91EF91BF91AF919F918F917F916F914C
:104470005F914F913F912F910F900FBE0F901F9022
:10448000189588E393E00E94A42021E0892B09F489
:1044900020E0822F089510923B0310923A0388EE99
:1044A00093E0A0E0B0E080933C0390933D03A093A1
:1044B0003E03B0933F038AE491E0909339038093E5
:1044C000380385EC90E0909345038093440384EC9B
:1044D00090E0909347038093460380EC90E09093A4
:1044E00049038093480381EC90E090934B038093C1
:1044F0004A0382EC90E090934D0380934C0386EC4A
:1045000090E090934F0380934E03109251031092CA
:1045100052031092530310925403089508950E9479
:10452000461F0E948E220E94E90CC1EDD0E20E943B
:10453000A40E2097E1F30E94D120F9CF0C945B29BF
:104540000C94F329CF92DF92EF92FF920F931F9377
:10455000CF93DF936C017A01EB01E60EF71E00E0CA
:1045600010E0CE15DF0561F06991D601ED91FC9167
:104570000190F081E02DC6010995080F191FF1CFB8
:10458000C801DF91CF911F910F91FF90EF90DF90C5
:10459000CF9008956115710581F0DB010D90002029
:1045A000E9F7AD0141505109461B570BDC01ED9174
:1045B000FC910280F381E02D099480E090E0089561
:1045C000EF92FF920F931F93CF93DF938C01FB0128
:1045D000C0E0D0E064917F018FEFE81AF80A66230B
:1045E00061F0D801ED91FC910190F081E02DC801BE
:1045F0000995C80FD91FF701EDCFCE01DF91CF91FB
:104600001F910F91FF90EF900895DC01ED91FC91C7
:10461000DB0114964D915C9115976D917C91028010
:10462000F381E02D099466E571E00C94CA220F93A2
:104630001F93CF93DF93EC010E94E0228C01CE0107
:104640000E941323800F911FDF91CF911F910F9133
:1046500008950F931F93CF93DF93EC010E940523DE
:104660008C01CE010E941323800F911FDF91CF9107
:104670001F910F9108958F929F92AF92BF92CF9208
:10468000DF92EF92FF920F931F93CF93DF93CDB7FB
:10469000DEB7A1970FB6F894DEBF0FBECDBF7C0189
:1046A000C42EE52FCB01D22E19A221E02D1510F03A
:1046B0002AE0D22E8E010F5D1F4F8D2C912CA12C44
:1046C000B12C6C2D7E2FA50194010E94D9288C2D30
:1046D000D29E80191124015011098A3014F4805D92
:1046E00001C0895CF8018083211531054105510520
:1046F00021F0C22EE32FCA01E4CFB801C7010E9406
:10470000CA22A1960FB6F894DEBF0FBECDBFDF91CF
:10471000CF911F910F91FF90EF90DF90CF90BF90BE
:10472000AF909F908F9008952115310541F4DC01E1
:10473000ED91FC910190F081E02D642F09940C948F
:104740003B239A01462F50E060E070E00C949423E4
:104750004F925F926F927F92AF92BF92CF92DF9211
:10476000EF92FF920F931F93CF93DF93CDB7DEB7F6
:1047700029013A01621B730B840B950B29893A8935
:104780004B895C892A193B094C095D09298B3A8BB5
:104790004B8B5C8B9B01AC0169897A898B899C89E5
:1047A0000E94BD28E418F50806091709A801970119
:1047B0000E94FB282A0D3B1D4C1D5D1DCA01B9013D
:1047C000DF91CF911F910F91FF90EF90DF90CF90ED
:1047D000BF90AF907F906F905F904F900895FC01D5
:1047E000808191810C94F329CF93DF93EC01888130
:1047F0009981009711F00E94F329198218821D8275
:104800001C821B821A82DF91CF9108950F931F9310
:10481000CF93DF93EC018B016F5F7F4F888199818C
:104820000E94822A009731F0998388831B830A8330
:1048300081E001C080E0DF91CF911F910F91089539
:10484000CF93DF93EC0188819981892B29F08A81AC
:104850009B818617970760F4CE010E940624882367
:1048600041F08C819D81892B19F4E881F9811082B6
:1048700081E0DF91CF910895EF92FF920F931F9304
:10488000CF93DF93EC017B018A01BA010E942024BF
:10489000811104C0CE010E94F42307C01D830C8344
:1048A000B701888199810E94772BCE01DF91CF914A
:1048B0001F910F91FF90EF900895FC0111821082DB
:1048C00013821282158214826115710559F0FB0161
:1048D00001900020E9F7AF0141505109461B570BE9
:1048E0000C943C240895CF93DF93EC01FB018617D1
:1048F000970761F0608171816115710529F044812C
:1049000055810E943C2402C00E94F423CE01DF9115
:10491000CF910895FC0111821082138212821582B8
:1049200014820C947324CF93DF93EC01611571050D
:1049300061F0FB0101900020E9F7AF0141505109FE
:10494000461B570B0E943C2402C00E94F423CE0158
:10495000DF91CF910895EF92FF920F931F93CF9322
:10496000DF93EC017B010C811D816115710511F450
:1049700080E016C04115510591F0040F151FB801D4
:104980000E9420248823A1F3288139818C819D8174
:10499000B701820F931F0E94772B1D830C8381E048
:1049A000DF91CF911F910F91FF90EF900895CF93DA
:1049B000DF9300D0CDB7DEB769831A8241E050E0C3
:1049C000BE016F5F7F4F0E94AB240F900F90DF916D
:1049D000CF910895EF92FF920F931F93CF93DF93A0
:1049E000CDB7DEB764970FB6F894DEBF0FBECDBF6C
:1049F0007C01CB01BA018E010F5F1F4F22E044E022
:104A00000E943A29FC0101900020E9F7AF014150D2
:104A10005109481B590BBC01C7010E94AB24649685
:104A20000FB6F894DEBF0FBECDBFDF91CF911F91BF
:104A30000F91FF90EF900895CF93DF93EC010E94C8
:104A4000EA24811103C0CE010E94F423CE01DF913C
:104A5000CF910895CF93DF93DC01ED91FC91EB01B1
:104A6000A881B981309711F01097C9F4109759F0C7
:104A7000EB012C813D81232B31F08C9190E09195BD
:104A80008195910914C0309781F0DC0114968D91C5
:104A90009C911597892B49F0808190E008C0BD0159
:104AA000CF01DF91CF910C946E2B80E090E0DF91ED
:104AB000CF910895FC0144815581FB01248135810A
:104AC0004217530741F40E942A2521E0892B09F05F
:104AD00020E0822F089580E00895BF92CF92DF9268
:104AE000EF92FF920F931F93CF93DF936C017B01A3
:104AF000EA0189012417350720F48D2FE901042FDD
:104B0000182F68E571E0C6010E945D24D701149654
:104B10008D919C911597C817D907C8F480179107F4
:104B200008F48C01D701ED91FC911197E00FF11F72
:104B3000B08010826D917C916C0F7D1FC6010E9428
:104B40009324D701ED91FC91E00FF11FB082C601D3
:104B5000DF91CF911F910F91FF90EF90DF90CF9059
:104B6000BF900895FC0180819181009711F00C9411
:104B70004C2B60E070E0CB01089508955058BB279E
:104B8000AA270ED0FCC1EDD130F0F2D120F031F4E3
:104B90009F3F11F41EF4BDC10EF4E095E7FBB3C1D5
:104BA000E92FFED180F3BA176207730784079507D0
:104BB00018F071F49EF516C20EF4E0950B2EBA2F84
:104BC000A02D0B01B90190010C01CA01A001112413
:104BD000FF27591B99F0593F50F4503E68F11A16BF
:104BE000F040A22F232F342F4427585FF3CF469550
:104BF00037952795A795F0405395C9F77EF41F1672
:104C0000BA0B620B730B840BBAF09150A1F0FF0F3B
:104C1000BB1F661F771F881FC2F70EC0BA0F621F27
:104C2000731F841F48F4879577956795B795F79517
:104C30009E3F08F0B3CF9395880F08F09927EE0FA9
:104C40009795879508958DD158F080E891E009F403
:104C50009EEF8ED128F040E851E059F45EEF09C094
:104C600058C1C0C1E92FE0789BD168F3092E052A0D
:104C7000C1F3261737074807590738F00E2E07F8F3
:104C8000E02569F0E025E0640AC0EF6307F80094CE
:104C900007FADB01B9019D01DC01CA01AD01EF9307
:104CA00047D06DD10AD05F91552331F02BED3FE015
:104CB00049E450FD49EC63CF0895DF93DD27B92F18
:104CC000BF7740E85FE31616170648075B0710F446
:104CD000D92F8FD19F938F937F936F9336D2E8E62E
:104CE000F0E01AD14CD12F913F914F915F9194D127
:104CF000DD2349F09058A2EA2AED3FE049EC5FE35A
:104D0000D0785D274DDFDF913AC1D9D008F481E03A
:104D100008950CD034C12CD140F023D130F021F4CF
:104D20005F3F19F0F0C051115EC1F3C039D198F363
:104D30009923C9F35523B1F3951B550BBB27AA271C
:104D400062177307840738F09F5F5F4F220F331F8E
:104D5000441FAA1FA9F333D00E2E3AF0E0E830D05A
:104D600091505040E695001CCAF729D0FE2F27D05D
:104D7000660F771F881FBB1F261737074807AB072B
:104D8000B0E809F0BB0B802DBF01FF2793585F4FA0
:104D90002AF09E3F510568F0B6C025C15F3FECF395
:104DA000983EDCF3869577956795B795F7959F5F65
:104DB000C9F7880F911D9695879597F90895E1E0B9
:104DC000660F771F881FBB1F621773078407BA0718
:104DD00020F0621B730B840BBA0BEE1F88F7E09573
:104DE000089504D06894B111FEC00895E1D088F010
:104DF0009F5790F0B92F9927B751A0F0D1F0660FC7
:104E0000771F881F991F1AF0BA95C9F712C0B130E1
:104E100081F0E8D0B1E00895E5C0672F782F8827AA
:104E2000B85F39F0B93FCCF3869577956795B39520
:104E3000D9F73EF490958095709561957F4F8F4F8F
:104E40009F4F0895E89409C097FB3EF49095809594
:104E5000709561957F4F8F4F9F4F9923A9F0F92F40
:104E600096E9BB279395F695879577956795B795BE
:104E7000F111F8CFFAF4BB0F11F460FF1BC06F5FA4
:104E80007F4F8F4F9F4F16C0882311F096E911C0B6
:104E9000772321F09EE8872F762F05C0662371F0D7
:104EA00096E8862F70E060E02AF09A95660F771FEB
:104EB000881FDAF7880F9695879597F90895990FC7
:104EC0000008550FAA0BE0E8FEEF16161706E807D4
:104ED000F907C0F012161306E407F50798F0621BF5
:104EE000730B840B950B39F40A2661F0232B242BCA
:104EF000252B21F408950A2609F4A140A6958FEFE9
:104F0000811D811D089597F99F6780E870E060E03A
:104F100008959FEF80EC0895DF93CF931F930F9335
:104F2000FF92EF92DF927B018C01689405C0DA2E2C
:104F3000EF0172D0FE01E894A5912591359145913C
:104F40005591AEF3EF012CDEFE019701A801DA9432
:104F500079F7DF90EF90FF900F911F91CF91DF9144
:104F6000089500240A9416161706180609060895CF
:104F700000240A9412161306140605060895092E35
:104F80000394000C11F4882352F0BB0F40F4BF2BA4
:104F900011F460FF04C06F5F7F4F8F4F9F4F0895E4
:104FA00057FD9058440F551F59F05F3F71F04795DA
:104FB000880F97FB991F61F09F3F79F087950895BF
:104FC000121613061406551FF2CF4695F1DF08C0DE
:104FD000161617061806991FF1CF869571056105FB
:104FE00008940895E894BB2766277727CB0197F9A3
:104FF00008959B01AC0160E070E080E89FE389CEFA
:105000000BD0BDCFAEDF28F0B3DF18F0952309F049
:105010007ACF7FCF1124E7CFC3DFA0F3959FD1F3E1
:10502000950F50E0551F629FF001729FBB27F00D56
:10503000B11D639FAA27F00DB11DAA1F649F6627AB
:10504000B00DA11D661F829F2227B00DA11D621FFA
:10505000739FB00DA11D621F839FA00D611D221FB4
:10506000749F3327A00D611D231F849F600D211D98
:10507000822F762F6A2F11249F5750408AF0E1F03B
:1050800088234AF0EE0FFF1FBB1F661F771F881F84
:1050900091505040A9F79E3F510570F034CFA3CFF7
:1050A0005F3FECF3983EDCF3869577956795B7956F
:1050B000F795E7959F5FC1F7FE2B880F911D969599
:1050C000879597F9089511F40EF423CF41C070DF4E
:1050D000D0F39923D9F3CEF39F57550B87FF46D0D2
:1050E0000024A0E640EA900180585695979528F450
:1050F000805C660F771F881F20F026173707480748
:1051000030F4621B730B840B202931294A2BA6959E
:1051100017940794202531254A2758F7660F771FE3
:10512000881F20F026173707480730F4620B730BEF
:10513000840B200D311D411DA09581F7B901842FED
:105140009158880F9695879508959B01AC0158CF8B
:105150009F3F31F0915020F4879577956795B795EB
:10516000880F911D9695879597F908959150504015
:10517000660F771F881FD2F70895DB018F939F93E7
:105180000E941A29BF91AF91A29F800D911DA39FEC
:10519000900DB29F900D11240895991B79E004C0E1
:1051A000991F961708F0961B881F7A95C9F7809566
:1051B0000895A1E21A2EAA1BBB1BFD010DC0AA1F58
:1051C000BB1FEE1FFF1FA217B307E407F50720F070
:1051D000A21BB30BE40BF50B661F771F881F991FEB
:1051E0001A9469F760957095809590959B01AC0134
:1051F000BD01CF010895052E97FB1EF400940E9477
:10520000122957FD07D00E94D92807FC03D04EF47D
:105210000C94122950954095309521953F4F4F4F52
:105220005F4F089590958095709561957F4F8F4F52
:105230009F4F08950E942B29A59F900DB49F900D1C
:10524000A49F800D911D11240895EE0FFF1F05905E
:10525000F491E02D0994A29FB001B39FC001A39FD8
:10526000700D811D1124911DB29F700D811D11249F
:10527000911D0895EF920F931F93CF93DF93E80151
:1052800047FF02C034E101C034E0E42FFF27E7FD0F
:10529000F095F7FF03C0F195E195F109E32E022F98
:1052A0002E2FAE010E947E2BCE01DF91CF911F9158
:1052B0000F91EF900895CF93DF938230910510F412
:1052C00082E090E0E091D703F091D80320E030E055
:1052D000A0E0B0E0309739F140815181481759077B
:1052E000B8F04817590771F482819381109729F01B
:1052F00013969C938E9312972CC09093D80380930F
:10530000D70327C02115310531F04217530718F094
:10531000A901DB0101C0EF019A01BD01DF0102809B
:10532000F381E02DD7CF21153105F9F0281B390B7A
:105330002430310580F48A819B816115710521F04B
:10534000FB019383828304C09093D8038093D70397
:10535000FE01329644C0FE01E20FF31F8193919348
:1053600022503109398328833AC02091D5033091E6
:10537000D603232B41F42091020130910301309395
:10538000D6032093D503209100013091010121150E
:10539000310541F42DB73EB740910401509105010C
:1053A000241B350BE091D503F091D603E217F307E8
:1053B000A0F42E1B3F0B2817390778F0AC014E5F85
:1053C0005F4F2417350748F04E0F5F1F5093D603E9
:1053D0004093D5038193919302C0E0E0F0E0CF01C8
:1053E000DF91CF910895CF93DF93009709F487C0A1
:1053F000FC01329713821282C091D703D091D80357
:10540000209781F420813181280F391F8091D503A5
:105410009091D6038217930779F5F093D603E09322
:10542000D5036DC0DE0120E030E0AE17BF0750F4B9
:1054300012964D915C9113979D014115510509F10B
:10544000DA01F3CFB383A28340815181840F951F8A
:105450008A179B0771F48D919C911197840F951F6A
:1054600002969183808312968D919C9113979383DA
:1054700082832115310529F4F093D803E093D703F3
:105480003EC0D9011396FC93EE9312974D915D9116
:10549000A40FB51FEA17FB0779F480819181840F6F
:1054A000951F0296D90111969C938E9382819381C8
:1054B00013969C938E931297E0E0F0E08A819B8193
:1054C000009719F0FE01EC01F9CFCE010296288178
:1054D0003981820F931F2091D5033091D60328176D
:1054E000390769F4309729F41092D8031092D70342
:1054F00002C013821282D093D603C093D503DF91EA
:10550000CF910895A0E0B0E0E8E8FAE20C94562FBD
:10551000EC01CB01209719F40E945B29B8C0FE0171
:10552000E60FF71F9E0122503109E217F30708F436
:10553000ACC0D9010D911C91119706171707B8F04F
:105540000530110508F49FC0A801445051094617C1
:10555000570708F498C002501109061B170B019356
:1055600011936D937C93CF010E94F3298CC05B0152
:10557000A01AB10A4E01800E911EA091D703B091DE
:10558000D803612C712C60E070E0109709F449C0D9
:10559000A815B905C9F5ED90FC901197670142E097
:1055A000C40ED11CCA14DB0478F147018A189B0889
:1055B000640142E0C40ED11C1296BC90129713965F
:1055C000AC91B5E0CB16D10440F0B282A3839182B6
:1055D0008082D9018D939C9309C00E5F1F4F0E0DE1
:1055E0001F1DF90111830083EB2DFA2F6115710541
:1055F00031F0DB011396FC93EE93129744C0F093C5
:10560000D803E093D7033FC06D917C911197661644
:10561000770608F43B01BD0112960D90BC91A02DB8
:10562000B4CF6091D5037091D60368157905E9F47C
:1056300068167906D0F4409100015091010141159E
:10564000510541F44DB75EB76091040170910501B9
:10565000461B570BE417F507C0F4F093D603E0930D
:10566000D503F901918380830EC00E945B297C01E0
:10567000009759F0A801BE010E94652BCE010E943F
:10568000F329C70104C0CE0102C080E090E0CDB78D
:10569000DEB7EEE00C94722F662777270C94FC2C73
:1056A0009111E5C3803219F089508550D0F70895E3
:1056B000FB01DC0104C08D910190801921F441505F
:1056C0005040C8F7881B990B0895FB01DC0102C00C
:1056D00001900D9241505040D8F70895FB01DC0134
:1056E0008D91019080190110D9F3990B0895FB0158
:1056F000DC0101900D920020E1F708956F927F92F6
:105700009F92AF92BF92CF92DF92EF92FF920F9350
:105710001F93CF93DF93CDB7DEB729970FB6F894D9
:10572000DEBF0FBECDBF6A01B22E102F0C3320F4A6
:10573000FF24F394F00E02C04CE3F42E0F2D27E06B
:10574000AE014F5F5F4F0E945F2E7981272F297036
:10575000213031F0E1FC06C0E0FC06C060E005C08D
:105760006DE203C06BE201C060E2AE2DA07173FF79
:1057700036C0662311F084E001C083E08B1510F47D
:10578000B81A01C0B12CA1110BC0F6018B2D90E20B
:10579000882319F091938150FBCFCB0CD11CB12CF5
:1057A000662331F0F601608396012F5F3F4F690158
:1057B000C6010396E2FE05C02EE4F601208331E423
:1057C00004C02EE6F601208331E631832283FC01FA
:1057D0002B2D30E22223F1F131932150FBCF72FFC8
:1057E00040C0662311F084E001C083E08B1510F403
:1057F000B81A01C0B12CA1110BC0F6018B2D90E29B
:10580000882319F091938150FBCFCB0CD11CB12C84
:10581000662331F0F601608396012F5F3F4F6901E7
:10582000C6010396E2FE07C029E4F60120832EE4B8
:10583000218326E406C029E6F60120832EE6218393
:1058400026E62283FC012B2D30E2222319F031932E
:105850002150FBCFFC01EB0DF11D10828EEF9FEF6D
:10586000B7C0B1E0611101C0B0E04B2F50E0181695
:10587000190624F49C012F5F3F4F02C021E030E065
:10588000240F351F112329F0412F50E04F5F5F4F48
:1058900002C040E050E0420F531F2B2D30E0421772
:1058A000530714F4B41A01C0B12C2E2D287159F4E9
:1058B000F6012B2D30E2222319F031932150FBCF3A
:1058C000CB0CD11CB12CBB2331F0F60160839601C7
:1058D0002F5F3F4F6901A1110BC0F6012B2D30E363
:1058E000222319F031932150FBCFCB0CD11CB12CCA
:1058F000F80E0A81372F3071A32E74FF03C00133D5
:1059000009F4FA941F142CF42F2D293018F028E0F4
:1059100001C021E0682F392F97FF02C060E030E01E
:10592000462F532F612C712C3EE2932EBC01621B3B
:1059300071099B01DC01A41BB50BE1E0F0E0EC0F69
:10594000FD1FAE0FBF1FE12EF12CF194E194F10881
:105950004F3FFFEF5F0731F4F6019082B6016F5FB2
:105960007F4F6B01841795074CF02417350734F4EB
:10597000BD01660D771DFB01118101C010E341508F
:105980005109FFEF6F1A7F0AB6016F5F7F4F4E1507
:105990005F0524F0F60110836B01DACF4817590731
:1059A00039F4063320F4053319F4A11001C011E3D2
:1059B000F6011083FB018B2D90E2882319F091935F
:1059C0008150FBCFFB01EB0DF11D108280E090E0D8
:1059D00029960FB6F894DEBF0FBECDBFDF91CF91F1
:1059E0001F910F91FF90EF90DF90CF90BF90AF90FD
:1059F0009F907F906F900895A0E0B0E0E2E0FDE21C
:105A00000C94582F8B016115710521F0DB018C93EB
:105A100011969C93EC015E01BFEFAB1ABB0A7501B6
:105A2000C8808C2D90E00E94502B892B11F0E5014D
:105A3000F2CFEDE2CE1208C07E01F2E0EF0EF11CD3
:105A4000C980DD24D39409C02BE2C21205C07E01B7
:105A500042E0E40EF11CC980D12CE701219743E01C
:105A600050E06AE97AE0CE010E943A2F892BC1F416
:105A7000239645E050E065E97AE0CE010E943A2F96
:105A8000892B09F425960115110519F0D801CD933C
:105A9000DC93D11006C160E070E080E89FE70AC1A6
:105AA00043E050E062E97AE0CE010E943A2F892B70
:105AB00059F40115110509F4F9C0B2E0EB0EF11C1F
:105AC000F801F182E082F2C0F70160E070E0CB0102
:105AD000C0E0D0E07F01A0EDAA2EAC0C29E02A1591
